:100000000C942C010C9454010C9454010C94540144
:100010000C9454010C9454010C9454010C9454010C
:100020000C9454010C9454010C942C070C94DE0590
:100030000C9454010C9454010C9454010C945401EC
:100040000C9454010C9454010C9454010C945401DC
:100050000C9454010C9454010C9454010C94090216
:100060000C9454010C9454010C9454010C945401BC
:100070000C9454010C9454010C9454010C945401AC
:100080000C9454010C9454010C9454010C9454019C
:100090000C9454010C9454010C9454010C9454018C
:1000A0000C9454010C9454010C945401080B00025C
:1000B0000202010009040000010202000005240000
:1000C0001001052401010104240206052406000193
:1000D0000705810310004009040100020A00000026
:1000E000070502024000000705830240000000C12E
:1000F0008081C112010002020000404123368000CD
:1001000001010200011201000200000040412336FB
:1001100080000101020001180341007200640075B3
:100120000069006E006F0020004C004C004300226C
:1001300003410072006400750069006E006F0020CA
:10014000004C0065006F006E006100720064006F7B
:10015000000403090400000000000000002A2B280E
:10016000000000000000000000000000000000008F
:1001700000000000002C9EB4A0A1A2A434A6A7A554
:10018000AE362D3738271E1F20212223242526B3E3
:1001900033B62EB7B89F8485868788898A8B8C8DE5
:1001A0008E8F909192939495969798999A9B9C9DF7
:1001B0002F3130A3AD350405060708090A0B0C0DD5
:1001C0000E0F101112131415161718191A1B1C1DD7
:1001D000AFB1B0B50009040200010300000009211D
:1001E00001010001226500070584034000010501AB
:1001F0000902A1010901A1008501050919012903CD
:10020000150025019503750181029501750581038E
:1002100005010930093109381581257F75089503D5
:100220008106C0C005010906A1018502050719E084
:1002300029E71500250175019508810295017508CA
:1002400081039506750815002565050719002965C0
:100250008100C0000B046E0911241FBECFEFDAE04D
:10026000DEBFCDBF11E0A0E0B1E0EAE4F3E102C0FF
:1002700005900D92A238B107D9F714E0A2E8B1E0D9
:1002800001C01D92A03FB107E1F712E0C8E5D2E03E
:1002900004C02297FE010E949F09C435D107C9F707
:1002A0000E9422040C94A3090C94000060E071EEFB
:1002B00088E894E00E94FB0340E85EEE66E370E0AD
:1002C00088E894E00E94FE0288E894E00E94FC0323
:1002D0008823D1F30895FB012191BF01222339F036
:1002E000FC013191CF013217B1F380E0089581E034
:1002F0000895EF92FF920F931F93CF93DF93EE2415
:10030000E394C0E0D0E000E010E088E894E00E94D0
:1003100004031816190634F060E070E0CB010E9467
:100320008202F3CFFF24F39488E894E00E94040350
:100330001816190624F588E894E00E942803D801CD
:10034000A058BC4F8C93FE01EE2031F0EF57FD4FCB
:1003500080838A3051F405C0EE57FE4F80838A3087
:1003600051F410821C92F12C06C0803221F41082CC
:10037000E12CCFEFDFEF0F5F1F4F2196D5CFF110AC
:10038000C4CFDF91CF911F910F91FF90EF9008950F
:100390000E9479016AE071E081E892E00E946B01BD
:1003A000882319F062E871E02BC06FE071E081E80A
:1003B00092E00E946B01882399F068E171E088E87F
:1003C00094E00E94C9070E945302AB01BC012AE0DD
:1003D00030E088E894E00E942B0866E271E010C0EB
:1003E00063E371E081E892E00E946B01882361F091
:1003F0006BE371E088E894E00E94C90768E471E06B
:1004000088E894E00E94C9076AE088E894E00C94C8
:10041000CB071F920F920FB60F9211242F933F9389
:100420008F939F93AF93BF938091800490918104A9
:10043000A0918204B091830430917F0423E0230FC4
:100440002D3720F40196A11DB11D05C026E8230F0C
:100450000296A11DB11D20937F0480938004909388
:100460008104A0938204B0938304809184049091CA
:100470008504A0918604B09187040196A11DB11D49
:100480008093840490938504A0938604B09387049A
:10049000BF91AF919F918F913F912F910F900FBE80
:1004A0000F901F9018952FB7F89460918004709169
:1004B000810480918204909183042FBF08953FB7F7
:1004C000F8948091840490918504A0918604B09161
:1004D000870426B5A89B05C02F3F19F00196A11DE2
:1004E000B11D3FBF6627782F892F9A2F620F711D8C
:1004F000811D911D42E0660F771F881F991F4A9545
:10050000D1F70895CF92DF92EF92FF92CF93DF93CE
:100510006B017C010E945F02EB01C114D104E10474
:10052000F10479F00E945F026C1B7D0B683E734002
:10053000A0F381E0C81AD108E108F108C851DC4FE6
:10054000ECCFDF91CF91FF90EF90DF90CF900895A7
:10055000789484B5826084BD84B5816084BD85B59E
:10056000826085BD85B5816085BDEEE6F0E0808165
:1005700081608083E1E8F0E0108280818260808386
:10058000808181608083E0E8F0E080818160808309
:10059000E1E9F0E0808182608083808181608083F6
:1005A000E0E9F0E0808181608083E1ECF0E080812F
:1005B0008460808380818260808380818160808389
:1005C000E3ECF0E0808181608083E0ECF0E080810A
:1005D00082608083E2ECF0E0808181608083EAE7E2
:1005E000F0E080818460808380818260808380816C
:1005F000816080838081806880830895FC014483CA
:1006000055836683778308958091D6049091D704AB
:100610002091D8043091D904821B930B8F739927B2
:1006200008952091D6043091D7048091D8049091F8
:10063000D9042817390749F0E091D804F091D9047A
:10064000EA56FB4F808190E008958FEF9FEF089569
:100650002091D6043091D7048091D8049091D90488
:1006600028173907A9F0E091D804F091D904EA5687
:10067000FB4F80812091D8043091D9042F5F3F4FE8
:100680002F7333273093D9042093D80490E0089532
:100690008FEF9FEF0895CF93DF93C091D604D09151
:1006A000D7042196CF73DD278091D8049091D90487
:1006B000C817D90799F082E00E94A0048F3F2FEF5E
:1006C000920761F0E091D604F091D704EA56FB4F0F
:1006D0008083D093D704C093D604DFCFDF91CF912E
:1006E000089583E00C9404070F931F93CF93DF9337
:1006F0001F92CDB7DEB78C016983809107018823F3
:1007000059F041E050E0BE016F5F7F4F83E00E94EF
:10071000D104181619063CF081E090E0F8019383AB
:10072000828380E090E00F90DF91CF911F910F9135
:100730000895FC0120812E5F208342E450E06CEAA2
:1007400070E080E80C946C05FC0181819081913A05
:1007500059F4813209F04BC047E050E060E071E0AD
:1007600080E00E946C0545C0913209F040C08032A3
:1007700039F467E070E080E091E00E94B00539C094
:10078000823209F034C08281809307018091000198
:1007900090910101A0910201B0910301803B94402E
:1007A000A105B10531F58091070180FD12C087E7F1
:1007B00097E790930108809300082BE088E190E090
:1007C0000FB6F894A895809360000FBE2093600048
:1007D00010C088E10FB6F89480936000109260001A
:1007E0000FBEA895109201081092000802C080E088
:1007F000089581E008950895CF93C09107016AE0BC
:1008000070E080E090E00E94820281E0C11101C0AE
:1008100080E0CF91089510928B0410928A0488EEA4
:1008200093E0A0E0B0E080938C0490938D04A093BB
:100830008E04B0938F0485E691E0909389048093B1
:10084000880408950E94A8028AED94E00E940E0791
:100850000E945601C0E0D0E00E94C8012097E1F359
:100860000E940000F9CF615030F02091F100FC01AE
:1008700020830196F8CF289884E68093E1040895B8
:100880002FB7FC012083F89467706093E900089506
:10089000CF93DF931F92CDB7DEB7682FCE010196BD
:1008A0000E9440048091F20099819FBF0F90DF91D8
:1008B000CF910895FF920F931F93CF93DF9300D0B2
:1008C000CDB7DEB7F62E8A019091E004992311F09E
:1008D00057FF03C08FEF9FEF2BC0682FCE0101960B
:1008E0007A830E9440048091F20090E0A8017A810E
:1008F000801791070CF4AC01EF2DF72FF40E84E66E
:10090000FE1639F028988093E1049091F1009193BC
:10091000F7CF4115510521F08091F200882321F095
:1009200089818FBFCA0104C08BE68093E800F8CFAD
:100930000F900F90DF91CF911F910F91FF9008952D
:10094000CF93DF931F92CDB7DEB741E050E0BE01F9
:100950006F5F7F4F0E945A04019719F4898190E0DC
:1009600002C08FEF9FEF0F90DF91CF910895CF934B
:10097000DF931F92CDB7DEB7682FCE0101960E949C
:1009800040049091E800892F807295FF04C09091F7
:10099000F20080E4891B99819FBF0F90DF91CF9176
:1009A00008954F925F926F927F928F929F92AF9233
:1009B000BF92CF92DF92EF92FF920F931F93CF934C
:1009C000DF931F92CDB7DEB7582E7B01A42E952E54
:1009D0008091E004882369F0042F152F8AEFB82E48
:1009E000852D8072782E9AE3892E852D8074682E4D
:1009F00011C08FEF9FEF53C0852D0E94B704482E82
:100A000081110CC0BA94A9F361E070E080E090E03D
:100A10000E9482020115110579F737C0282F30E0B6
:100A2000021713070CF4402EC42CD12C0C191D09ED
:100A3000652DCE0101960E944004772039F04A943A
:100A40008FEF4816B1F01092F100F9CFF701842D25
:100A500057FE07C0815058F094919093F100319661
:100A6000F9CF815020F091919093F100FACFEC0CE6
:100A7000FD1C8091E80085FF0FC00115110511F4E0
:100A800061100AC089818FBFC5CF5D9884E68093CD
:100A9000E2048A2D992D03C08092E800F3CF0F90D5
:100AA000DF91CF911F910F91FF90EF90DF90CF904A
:100AB000BF90AF909F908F907F906F905F904F907E
:100AC00008951092E9001092DF041092DE049093D2
:100AD000DD048093DC040895CF93DF93FB0120E0D5
:100AE00030E0DEEF24173507A1F187FF02C0C49183
:100AF00001C0C081A091DE04B091DF046091DC04EC
:100B00007091DD04A617B707B4F49091E8009570D2
:100B1000E1F39091E80092FD1EC0C093F100609156
:100B2000DE047091DF046F5F7F4F6F737727672B51
:100B300011F4D093E8006091DE047091DF046F5FE0
:100B40007F4F7093DF046093DE042F5F3F4F319639
:100B5000C9CFC90102C08FEF9FEFDF91CF910895F8
:100B60001F93CF93DF931F92CDB7DEB7162F20913F
:100B7000E80022FFFCCF612F79830E9433048BEFC2
:100B80008093E800812F7981972F0F90DF91CF918B
:100B90001F910895CF93DF931F92CDB7DEB71982CF
:100BA000CE0101960E949903CE0101960E9456083B
:100BB000898190E00F90DF91CF9108951F920F925D
:100BC0000FB60F921124EF92FF920F931F932F9362
:100BD0003F934F935F936F937F938F939F93AF93C5
:100BE000BF93EF93FF93CF93DF93CDB7DEB76297B9
:100BF000DEBFCDBF1092E9008091E80083FFE7C01F
:100C000068E0CE010A960E94330482EF8093E800E8
:100C10009A8597FF05C08091E80080FFFCCF03C054
:100C20008EEF8093E800892F807609F0B5C08B8520
:100C3000811105C01092F1001092F100C1C0282F5F
:100C40002D7F213009F4BCC0853049F48091E80043
:100C500080FFFCCF8C8580688093E300B1C0863034
:100C600009F072C02D85E888F988223071F580E09E
:100C700090E02A8B0E9461050E94CA0599E08E01CE
:100C80000F5F1F4FF801392F11923A95E9F79983B9
:100C90002A892A8391E09E8390E898879AEF998722
:100CA0002091DE043091DF04275F3F4F3C832B838C
:100CB0008D83C7010E94610549E050E0B80180E0E2
:100CC0000E946C050E94CA057BC0C7012A8B0E9446
:100CD00061052A89223241F482E290E00E94610893
:100CE000892B09F06DC070C0213069F48889998919
:100CF000089711F42093DB048091DB04882389F0AA
:100D000063EF70E016C0233009F05EC08C85882345
:100D100059F0823061F0813009F056C067E171E02E
:100D200008C065E071E005C061E571E002C06FE2F6
:100D300071E06115710509F447C0FB01449150E071
:100D400080E80E946C053CC0873009F43DC08830C3
:100D500021F481E08093F10033C0893089F59370EC
:100D600099F5EFEEF0E081E021E096E38093E90071
:100D70002093EB0034913093EC009093ED008F5F63
:100D80003196853099F78EE78093EA001092EA0059
:100D90008C858093E00414C0888999890E9461053C
:100DA0008E85811105C0CE010A960E94A40306C05B
:100DB000823051F4CE010A960E948908882321F0DE
:100DC0008EEF8093E80003C081E28093EB0062968F
:100DD0000FB6F894DEBF0FBECDBFDF91CF91FF916C
:100DE000EF91BF91AF919F918F917F916F915F91A3
:100DF0004F913F912F911F910F91FF90EF900F9086
:100E00000FBE0F901F9018958093E9008091F2001B
:100E1000882319F08AE38093E80008951092E00493
:100E200081E08093D70080EA8093D80082E189BD79
:100E300009B400FEFDCF61E070E080E090E00E9428
:100E4000820280E98093D8008CE08093E2001092C7
:100E5000E000559A209A08951F920F920FB60F92B4
:100E600011242F933F934F935F936F937F938F93AF
:100E70009F93AF93BF93EF93FF938091E100109204
:100E8000E10083FF0FC01092E90091E09093EB0026
:100E90001092EC0092E39093ED001092E00498E041
:100EA0009093F00082FF26C083E00E94040782E056
:100EB0000E944804882321F088E894E00E944B03B4
:100EC0008091E204882339F08091E204815080937C
:100ED000E204882369F08091E104882359F080912D
:100EE000E10481508093E104811104C0289A02C07A
:100EF0005D9AF1CFFF91EF91BF91AF919F918F914B
:100F00007F916F915F914F913F912F910F900FBE05
:100F10000F901F901895CF92DF92EF92FF920F9350
:100F20001F93CF93DF936C017A01EB01E60EF71E5E
:100F300000E010E0CE15DF0561F06991D601ED917A
:100F4000FC910190F081E02DC6010995080F191F51
:100F5000F1CFC801DF91CF911F910F91FF90EF90DA
:100F6000DF90CF9008956115710581F0DB010D9040
:100F70000020E9F7AD0141505109461B570BDC0138
:100F8000ED91FC910280F381E02D099480E090E0E6
:100F900008950C94B307DC01ED91FC910190F08170
:100FA000E02D09948F929F92AF92BF92CF92DF92E1
:100FB000EF92FF920F931F93CF93DF93CDB7DEB7DE
:100FC000A1970FB6F894DEBF0FBECDBF7C01C42E33
:100FD000E52FCB01D22E19A221E02D1510F02AE029
:100FE000D22E8E010F5D1F4F8D2C912CA12CB12C78
:100FF0006C2D7E2FA50194010E947B098C2DD29E21
:1010000080191124015011098A3014F4805D01C047
:10101000895CF8018083211531054105510521F0D6
:10102000C22EE32FCA01E4CFB801C7010E94B30763
:10103000A1960FB6F894DEBF0FBECDBFDF91CF9162
:101040001F910F91FF90EF90DF90CF90BF90AF90E6
:101050009F908F9008952115310541F4DC01ED91A9
:10106000FC910190F081E02D642F09940C94D2073B
:10107000FF920F931F93CF93DF93EC01F62EE8813D
:10108000F9810480F581E02D09958C01E881F981D1
:101090000680F781E02D6F2DCE010995C8019927B3
:1010A000DF91CF911F910F91FF900895FC01208156
:1010B0002F5F208349E150E065ED71E080E80C94FA
:1010C0006C0545E650E06EEE71E080E80C946C052E
:1010D000EF92FF920F931F93CF93DF931F92CDB7A1
:1010E000DEB789838B017A0141E050E0BE016F5F7A
:1010F0007F4F84E00E94D104A701B80184E40E94DC
:10110000D1040F90DF91CF911F910F91FF90EF903D
:101110000895FC0191818081813A31F481E0913020
:1011200091F0933089F411C0813271F49B3021F435
:1011300082818093090105C09A3031F482818093C5
:10114000080181E00895089580E0089548E050E0A6
:1011500082E00C946808CF93DF93DC01683818F0C4
:10116000E8E7E60F25C0E62FF0E067FF11C0E05882
:10117000F10981E090E001C0880FEA95EAF7149642
:101180009C911497982B14969C931497E0E010C0B0
:10119000EB5AFE4FE491EE2309F440C0E7FF08C08C
:1011A00014968C911497826014968C931497EF7711
:1011B00016968C9116978E1741F117968C9117976A
:1011C0008E1719F118968C9118978E17F1F01996C1
:1011D0008C9119978E17C9F01A968C911A978E17C1
:1011E000A1F01B968C911B978E1779F080E090E010
:1011F000ED01C80FD91F2E81211102C0EE8305C059
:10120000019686309105A1F709C0BD016C5F7F4F43
:10121000CD010E94A60881E090E008C081E090E046
:1012200013969C938E93129780E090E0DF91CF917C
:101230000895683818F0E8E7E60F25C0E62FF0E0DB
:1012400067FF12C0E058F10921E030E001C0220F31
:10125000EA95EAF72095DC0114963C911497322325
:1012600014963C93E0E00FC0EB5AFE4FE491EE235E
:1012700029F1E7FF08C0DC0114962C9114972D7F0B
:1012800014962C93EF7720E030E0EE2351F0DC0150
:10129000A20FB31F16964C9116974E1302C01696C6
:1012A0001C922F5F3F4F2630310579F7BC016C5FF0
:1012B0007F4F0E94A60881E090E0089580E090E0D2
:1012C0000895FC01168217821086118612861386F5
:1012D0001482BC016C5F7F4F0C94A6081092EF043F
:1012E0001092E6041092E50487E791E09093E404FD
:1012F0008093E3040895A1E21A2EAA1BBB1BFD01F3
:101300000DC0AA1FBB1FEE1FFF1FA217B307E407E4
:10131000F50720F0A21BB30BE40BF50B661F771F3C
:10132000881F991F1A9469F760957095809590951C
:101330009B01AC01BD01CF010895EE0FFF1F059089
:0A134000F491E02D0994F894FFCF1A
:10134A0000E100000000000001016563686F0067AA
:10135A0065745F74696D650041434B206765745F0E
:10136A0074696D652000207469636B735F33326B37
:10137A00687A006765745F7569640041434B20674A
:10138A0065745F75696420003035443846463332E7
:10139A003336333234383333343330333731303908
:1013AA00000000000074038B070403280311037173
:1013BA00034B030000000038088B07AB08190961CA
:0213CA00090018
:00000001FF
